{
  "_format": "hh-sol-artifact-1",
  "contractName": "NFTMarketplace",
  "sourceName": "contracts/NFTMarketplace.sol",
  "abi": [
    {
      "inputs": [],
      "stateMutability": "nonpayable",
      "type": "constructor"
    },
    {
      "anonymous": false,
      "inputs": [
        {
          "indexed": true,
          "internalType": "address",
          "name": "owner",
          "type": "address"
        },
        {
          "indexed": true,
          "internalType": "address",
          "name": "approved",
          "type": "address"
        },
        {
          "indexed": true,
          "internalType": "uint256",
          "name": "tokenId",
          "type": "uint256"
        }
      ],
      "name": "Approval",
      "type": "event"
    },
    {
      "anonymous": false,
      "inputs": [
        {
          "indexed": true,
          "internalType": "address",
          "name": "owner",
          "type": "address"
        },
        {
          "indexed": true,
          "internalType": "address",
          "name": "operator",
          "type": "address"
        },
        {
          "indexed": false,
          "internalType": "bool",
          "name": "approved",
          "type": "bool"
        }
      ],
      "name": "ApprovalForAll",
      "type": "event"
    },
    {
      "anonymous": false,
      "inputs": [
        {
          "indexed": true,
          "internalType": "address",
          "name": "from",
          "type": "address"
        },
        {
          "indexed": true,
          "internalType": "address",
          "name": "to",
          "type": "address"
        },
        {
          "indexed": true,
          "internalType": "uint256",
          "name": "tokenId",
          "type": "uint256"
        }
      ],
      "name": "Transfer",
      "type": "event"
    },
    {
      "anonymous": false,
      "inputs": [
        {
          "indexed": true,
          "internalType": "uint256",
          "name": "tokenId",
          "type": "uint256"
        },
        {
          "indexed": false,
          "internalType": "address",
          "name": "seller",
          "type": "address"
        },
        {
          "indexed": false,
          "internalType": "address",
          "name": "owner",
          "type": "address"
        },
        {
          "indexed": false,
          "internalType": "uint256",
          "name": "price",
          "type": "uint256"
        },
        {
          "indexed": false,
          "internalType": "bool",
          "name": "sold",
          "type": "bool"
        }
      ],
      "name": "idMarketItemCreated",
      "type": "event"
    },
    {
      "inputs": [
        {
          "internalType": "address",
          "name": "to",
          "type": "address"
        },
        {
          "internalType": "uint256",
          "name": "tokenId",
          "type": "uint256"
        }
      ],
      "name": "approve",
      "outputs": [],
      "stateMutability": "nonpayable",
      "type": "function"
    },
    {
      "inputs": [
        {
          "internalType": "address",
          "name": "owner",
          "type": "address"
        }
      ],
      "name": "balanceOf",
      "outputs": [
        {
          "internalType": "uint256",
          "name": "",
          "type": "uint256"
        }
      ],
      "stateMutability": "view",
      "type": "function"
    },
    {
      "inputs": [
        {
          "internalType": "uint256",
          "name": "tokenId",
          "type": "uint256"
        }
      ],
      "name": "createMarketSale",
      "outputs": [],
      "stateMutability": "payable",
      "type": "function"
    },
    {
      "inputs": [
        {
          "internalType": "string",
          "name": "tokenURI",
          "type": "string"
        },
        {
          "internalType": "uint256",
          "name": "price",
          "type": "uint256"
        }
      ],
      "name": "createToken",
      "outputs": [
        {
          "internalType": "uint256",
          "name": "",
          "type": "uint256"
        }
      ],
      "stateMutability": "payable",
      "type": "function"
    },
    {
      "inputs": [],
      "name": "fetchItemsListed",
      "outputs": [
        {
          "components": [
            {
              "internalType": "uint256",
              "name": "tokenId",
              "type": "uint256"
            },
            {
              "internalType": "address payable",
              "name": "seller",
              "type": "address"
            },
            {
              "internalType": "address payable",
              "name": "owner",
              "type": "address"
            },
            {
              "internalType": "uint256",
              "name": "price",
              "type": "uint256"
            },
            {
              "internalType": "bool",
              "name": "sold",
              "type": "bool"
            }
          ],
          "internalType": "struct NFTMarketplace.MarketItem[]",
          "name": "",
          "type": "tuple[]"
        }
      ],
      "stateMutability": "view",
      "type": "function"
    },
    {
      "inputs": [],
      "name": "fetchMarketItem",
      "outputs": [
        {
          "components": [
            {
              "internalType": "uint256",
              "name": "tokenId",
              "type": "uint256"
            },
            {
              "internalType": "address payable",
              "name": "seller",
              "type": "address"
            },
            {
              "internalType": "address payable",
              "name": "owner",
              "type": "address"
            },
            {
              "internalType": "uint256",
              "name": "price",
              "type": "uint256"
            },
            {
              "internalType": "bool",
              "name": "sold",
              "type": "bool"
            }
          ],
          "internalType": "struct NFTMarketplace.MarketItem[]",
          "name": "",
          "type": "tuple[]"
        }
      ],
      "stateMutability": "view",
      "type": "function"
    },
    {
      "inputs": [],
      "name": "fetchMyNFT",
      "outputs": [
        {
          "components": [
            {
              "internalType": "uint256",
              "name": "tokenId",
              "type": "uint256"
            },
            {
              "internalType": "address payable",
              "name": "seller",
              "type": "address"
            },
            {
              "internalType": "address payable",
              "name": "owner",
              "type": "address"
            },
            {
              "internalType": "uint256",
              "name": "price",
              "type": "uint256"
            },
            {
              "internalType": "bool",
              "name": "sold",
              "type": "bool"
            }
          ],
          "internalType": "struct NFTMarketplace.MarketItem[]",
          "name": "",
          "type": "tuple[]"
        }
      ],
      "stateMutability": "view",
      "type": "function"
    },
    {
      "inputs": [
        {
          "internalType": "uint256",
          "name": "tokenId",
          "type": "uint256"
        }
      ],
      "name": "getApproved",
      "outputs": [
        {
          "internalType": "address",
          "name": "",
          "type": "address"
        }
      ],
      "stateMutability": "view",
      "type": "function"
    },
    {
      "inputs": [],
      "name": "getListingPrice",
      "outputs": [
        {
          "internalType": "uint256",
          "name": "",
          "type": "uint256"
        }
      ],
      "stateMutability": "view",
      "type": "function"
    },
    {
      "inputs": [
        {
          "internalType": "address",
          "name": "owner",
          "type": "address"
        },
        {
          "internalType": "address",
          "name": "operator",
          "type": "address"
        }
      ],
      "name": "isApprovedForAll",
      "outputs": [
        {
          "internalType": "bool",
          "name": "",
          "type": "bool"
        }
      ],
      "stateMutability": "view",
      "type": "function"
    },
    {
      "inputs": [],
      "name": "name",
      "outputs": [
        {
          "internalType": "string",
          "name": "",
          "type": "string"
        }
      ],
      "stateMutability": "view",
      "type": "function"
    },
    {
      "inputs": [
        {
          "internalType": "uint256",
          "name": "tokenId",
          "type": "uint256"
        }
      ],
      "name": "ownerOf",
      "outputs": [
        {
          "internalType": "address",
          "name": "",
          "type": "address"
        }
      ],
      "stateMutability": "view",
      "type": "function"
    },
    {
      "inputs": [
        {
          "internalType": "uint256",
          "name": "tokenId",
          "type": "uint256"
        },
        {
          "internalType": "uint256",
          "name": "price",
          "type": "uint256"
        }
      ],
      "name": "resellToken",
      "outputs": [],
      "stateMutability": "payable",
      "type": "function"
    },
    {
      "inputs": [
        {
          "internalType": "address",
          "name": "from",
          "type": "address"
        },
        {
          "internalType": "address",
          "name": "to",
          "type": "address"
        },
        {
          "internalType": "uint256",
          "name": "tokenId",
          "type": "uint256"
        }
      ],
      "name": "safeTransferFrom",
      "outputs": [],
      "stateMutability": "nonpayable",
      "type": "function"
    },
    {
      "inputs": [
        {
          "internalType": "address",
          "name": "from",
          "type": "address"
        },
        {
          "internalType": "address",
          "name": "to",
          "type": "address"
        },
        {
          "internalType": "uint256",
          "name": "tokenId",
          "type": "uint256"
        },
        {
          "internalType": "bytes",
          "name": "data",
          "type": "bytes"
        }
      ],
      "name": "safeTransferFrom",
      "outputs": [],
      "stateMutability": "nonpayable",
      "type": "function"
    },
    {
      "inputs": [
        {
          "internalType": "address",
          "name": "operator",
          "type": "address"
        },
        {
          "internalType": "bool",
          "name": "approved",
          "type": "bool"
        }
      ],
      "name": "setApprovalForAll",
      "outputs": [],
      "stateMutability": "nonpayable",
      "type": "function"
    },
    {
      "inputs": [
        {
          "internalType": "bytes4",
          "name": "interfaceId",
          "type": "bytes4"
        }
      ],
      "name": "supportsInterface",
      "outputs": [
        {
          "internalType": "bool",
          "name": "",
          "type": "bool"
        }
      ],
      "stateMutability": "view",
      "type": "function"
    },
    {
      "inputs": [],
      "name": "symbol",
      "outputs": [
        {
          "internalType": "string",
          "name": "",
          "type": "string"
        }
      ],
      "stateMutability": "view",
      "type": "function"
    },
    {
      "inputs": [
        {
          "internalType": "uint256",
          "name": "tokenId",
          "type": "uint256"
        }
      ],
      "name": "tokenURI",
      "outputs": [
        {
          "internalType": "string",
          "name": "",
          "type": "string"
        }
      ],
      "stateMutability": "view",
      "type": "function"
    },
    {
      "inputs": [
        {
          "internalType": "address",
          "name": "from",
          "type": "address"
        },
        {
          "internalType": "address",
          "name": "to",
          "type": "address"
        },
        {
          "internalType": "uint256",
          "name": "tokenId",
          "type": "uint256"
        }
      ],
      "name": "transferFrom",
      "outputs": [],
      "stateMutability": "nonpayable",
      "type": "function"
    },
    {
      "inputs": [
        {
          "internalType": "uint256",
          "name": "_listingPrice",
          "type": "uint256"
        }
      ],
      "name": "updateListingPrice",
      "outputs": [],
      "stateMutability": "payable",
      "type": "function"
    }
  ],
  "bytecode": "0x60806040526658d15e17628000600a553480156200001c57600080fd5b506040518060400160405280601381526020017f4e4654204d657461766572736520546f6b656e000000000000000000000000008152506040518060400160405280600581526020017f4d794e465400000000000000000000000000000000000000000000000000000081525081600090816200009a919062000355565b508060019081620000ac919062000355565b5050503373ffffffffffffffffffffffffffffffffffffffff16600960009054906101000a905050506200043c565b600081519050919050565b7f4e487b7100000000000000000000000000000000000000000000000000000000600052604160045260246000fd5b7f4e487b7100000000000000000000000000000000000000000000000000000000600052602260045260246000fd5b600060028204905060018216806200015d57607f821691505b60208210810362000173576200017262000115565b5b50919050565b60008190508160005260206000209050919050565b60006020601f8301049050919050565b600082821b905092915050565b600060088302620001dd7fffffffffffffffffffffffffffffffffffffffffffffffffffffffffffffffff826200019e565b620001e986836200019e565b95508019841693508086168417925050509392505050565b6000819050919050565b6000819050919050565b600062000236620002306200022a8462000201565b6200020b565b62000201565b9050919050565b6000819050919050565b620002528362000215565b6200026a62000261826200023d565b848454620001ab565b825550505050565b600090565b6200028162000272565b6200028e81848462000247565b505050565b5b81811015620002b657620002aa60008262000277565b60018101905062000294565b5050565b601f8211156200030557620002cf8162000179565b620002da846200018e565b81016020851015620002ea578190505b62000302620002f9856200018e565b83018262000293565b50505b505050565b600082821c905092915050565b60006200032a600019846008026200030a565b1980831691505092915050565b600062000345838362000317565b9150826002028217905092915050565b6200036082620000db565b67ffffffffffffffff8111156200037c576200037b620000e6565b5b62000388825462000144565b62000395828285620002ba565b600060209050601f831160018114620003cd5760008415620003b8578287015190505b620003c4858262000337565b86555062000434565b601f198416620003dd8662000179565b60005b828110156200040757848901518255600182019150602085019450602081019050620003e0565b8683101562000427578489015162000423601f89168262000317565b8355505b6001600288020188555050505b505050505050565b614246806200044c6000396000f3fe60806040526004361061012a5760003560e01c806372b3b620116100ab578063b88d4fde1161006f578063b88d4fde146103ea578063be9af53614610413578063c18763f71461042f578063c87b56dd1461045a578063e219fc7514610497578063e985e9c5146104b35761012a565b806372b3b6201461031f5780638fafd0211461034f57806395d89b411461037a578063a22cb465146103a5578063ae677aa3146103ce5761012a565b806323b872dd116100f257806323b872dd1461022857806342842e0e1461025157806345f8fa801461027a5780636352211e146102a557806370a08231146102e25761012a565b806301ffc9a71461012f57806306fdde031461016c578063081812fc14610197578063095ea7b3146101d457806312e85585146101fd575b600080fd5b34801561013b57600080fd5b5061015660048036038101906101519190612a78565b6104f0565b6040516101639190612ac0565b60405180910390f35b34801561017857600080fd5b506101816105d2565b60405161018e9190612b6b565b60405180910390f35b3480156101a357600080fd5b506101be60048036038101906101b99190612bc3565b610664565b6040516101cb9190612c31565b60405180910390f35b3480156101e057600080fd5b506101fb60048036038101906101f69190612c78565b6106aa565b005b34801561020957600080fd5b506102126107c1565b60405161021f9190612cc7565b60405180910390f35b34801561023457600080fd5b5061024f600480360381019061024a9190612ce2565b6107cb565b005b34801561025d57600080fd5b5061027860048036038101906102739190612ce2565b61082b565b005b34801561028657600080fd5b5061028f61084b565b60405161029c9190612e8b565b60405180910390f35b3480156102b157600080fd5b506102cc60048036038101906102c79190612bc3565b610b13565b6040516102d99190612c31565b60405180910390f35b3480156102ee57600080fd5b5061030960048036038101906103049190612ead565b610b99565b6040516103169190612cc7565b60405180910390f35b6103396004803603810190610334919061300f565b610c50565b6040516103469190612cc7565b60405180910390f35b34801561035b57600080fd5b50610364610c92565b6040516103719190612e8b565b60405180910390f35b34801561038657600080fd5b5061038f610ed6565b60405161039c9190612b6b565b60405180910390f35b3480156103b157600080fd5b506103cc60048036038101906103c79190613097565b610f68565b005b6103e860048036038101906103e39190612bc3565b610f7e565b005b3480156103f657600080fd5b50610411600480360381019061040c9190613178565b611018565b005b61042d60048036038101906104289190612bc3565b61107a565b005b34801561043b57600080fd5b5061044461125c565b6040516104519190612e8b565b60405180910390f35b34801561046657600080fd5b50610481600480360381019061047c9190612bc3565b611524565b60405161048e9190612b6b565b60405180910390f35b6104b160048036038101906104ac91906131fb565b611636565b005b3480156104bf57600080fd5b506104da60048036038101906104d5919061323b565b61186e565b6040516104e79190612ac0565b60405180910390f35b60007f80ac58cd000000000000000000000000000000000000000000000000000000007bffffffffffffffffffffffffffffffffffffffffffffffffffffffff1916827bffffffffffffffffffffffffffffffffffffffffffffffffffffffff191614806105bb57507f5b5e139f000000000000000000000000000000000000000000000000000000007bffffffffffffffffffffffffffffffffffffffffffffffffffffffff1916827bffffffffffffffffffffffffffffffffffffffffffffffffffffffff1916145b806105cb57506105ca82611902565b5b9050919050565b6060600080546105e1906132aa565b80601f016020809104026020016040519081016040528092919081815260200182805461060d906132aa565b801561065a5780601f1061062f5761010080835404028352916020019161065a565b820191906000526020600020905b81548152906001019060200180831161063d57829003601f168201915b5050505050905090565b600061066f8261196c565b6004600083815260200190815260200160002060009054906101000a900473ffffffffffffffffffffffffffffffffffffffff169050919050565b60006106b582610b13565b90508073ffffffffffffffffffffffffffffffffffffffff168373ffffffffffffffffffffffffffffffffffffffff1603610725576040517f08c379a000000000000000000000000000000000000000000000000000000000815260040161071c9061334d565b60405180910390fd5b8073ffffffffffffffffffffffffffffffffffffffff166107446119b7565b73ffffffffffffffffffffffffffffffffffffffff16148061077357506107728161076d6119b7565b61186e565b5b6107b2576040517f08c379a00000000000000000000000000000000000000000000000000000000081526004016107a9906133df565b60405180910390fd5b6107bc83836119bf565b505050565b6000600a54905090565b6107dc6107d66119b7565b82611a78565b61081b576040517f08c379a000000000000000000000000000000000000000000000000000000000815260040161081290613471565b60405180910390fd5b610826838383611b0d565b505050565b61084683838360405180602001604052806000815250611018565b505050565b606060006108596007611e06565b90506000806000600190505b8381116108f8573373ffffffffffffffffffffffffffffffffffffffff16600b600083815260200190815260200160002060010160009054906101000a900473ffffffffffffffffffffffffffffffffffffffff1673ffffffffffffffffffffffffffffffffffffffff16036108e5576001836108e291906134c0565b92505b80806108f0906134f4565b915050610865565b5060008267ffffffffffffffff81111561091557610914612ee4565b5b60405190808252806020026020018201604052801561094e57816020015b61093b6129af565b8152602001906001900390816109335790505b5090506000600190505b838111610b08573373ffffffffffffffffffffffffffffffffffffffff16600b600083815260200190815260200160002060010160009054906101000a900473ffffffffffffffffffffffffffffffffffffffff1673ffffffffffffffffffffffffffffffffffffffff1603610af5576000600b60008381526020019081526020016000209050806040518060a0016040529081600082015481526020016001820160009054906101000a900473ffffffffffffffffffffffffffffffffffffffff1673ffffffffffffffffffffffffffffffffffffffff1673ffffffffffffffffffffffffffffffffffffffff1681526020016002820160009054906101000a900473ffffffffffffffffffffffffffffffffffffffff1673ffffffffffffffffffffffffffffffffffffffff1673ffffffffffffffffffffffffffffffffffffffff168152602001600382015481526020016004820160009054906101000a900460ff161515151581525050838581518110610ad957610ad861353c565b5b6020026020010181905250600184610af191906134c0565b9350505b8080610b00906134f4565b915050610958565b508094505050505090565b600080610b1f83611e14565b9050600073ffffffffffffffffffffffffffffffffffffffff168173ffffffffffffffffffffffffffffffffffffffff1603610b90576040517f08c379a0000000000000000000000000000000000000000000000000000000008152600401610b87906135b7565b60405180910390fd5b80915050919050565b60008073ffffffffffffffffffffffffffffffffffffffff168273ffffffffffffffffffffffffffffffffffffffff1603610c09576040517f08c379a0000000000000000000000000000000000000000000000000000000008152600401610c0090613649565b60405180910390fd5b600360008373ffffffffffffffffffffffffffffffffffffffff1673ffffffffffffffffffffffffffffffffffffffff168152602001908152602001600020549050919050565b6000610c5c6007611e51565b6000610c686007611e06565b9050610c743382611e67565b610c7e8185612084565b610c8881846120f1565b8091505092915050565b60606000610ca06007611e06565b90506000610cae6008611e06565b82610cb99190613669565b90506000808267ffffffffffffffff811115610cd857610cd7612ee4565b5b604051908082528060200260200182016040528015610d1157816020015b610cfe6129af565b815260200190600190039081610cf65790505b5090506000600190505b848111610ecb573073ffffffffffffffffffffffffffffffffffffffff16600b600083815260200190815260200160002060020160009054906101000a900473ffffffffffffffffffffffffffffffffffffffff1673ffffffffffffffffffffffffffffffffffffffff1603610eb8576000600b60008381526020019081526020016000209050806040518060a0016040529081600082015481526020016001820160009054906101000a900473ffffffffffffffffffffffffffffffffffffffff1673ffffffffffffffffffffffffffffffffffffffff1673ffffffffffffffffffffffffffffffffffffffff1681526020016002820160009054906101000a900473ffffffffffffffffffffffffffffffffffffffff1673ffffffffffffffffffffffffffffffffffffffff1673ffffffffffffffffffffffffffffffffffffffff168152602001600382015481526020016004820160009054906101000a900460ff161515151581525050838581518110610e9c57610e9b61353c565b5b6020026020010181905250600184610eb491906134c0565b9350505b8080610ec3906134f4565b915050610d1b565b508094505050505090565b606060018054610ee5906132aa565b80601f0160208091040260200160405190810160405280929190818152602001828054610f11906132aa565b8015610f5e5780601f10610f3357610100808354040283529160200191610f5e565b820191906000526020600020905b815481529060010190602001808311610f4157829003601f168201915b5050505050905090565b610f7a610f736119b7565b83836122f4565b5050565b600960009054906101000a900473ffffffffffffffffffffffffffffffffffffffff1673ffffffffffffffffffffffffffffffffffffffff163373ffffffffffffffffffffffffffffffffffffffff161461100e576040517f08c379a00000000000000000000000000000000000000000000000000000000081526004016110059061370f565b60405180910390fd5b80600a8190555050565b6110296110236119b7565b83611a78565b611068576040517f08c379a000000000000000000000000000000000000000000000000000000000815260040161105f90613471565b60405180910390fd5b61107484848484612460565b50505050565b6000600b60008381526020019081526020016000206003015490503481146110d7576040517f08c379a00000000000000000000000000000000000000000000000000000000081526004016110ce906137a1565b60405180910390fd5b6001600b600084815260200190815260200160002060040160006101000a81548160ff02191690831515021790555033600b600084815260200190815260200160002060020160006101000a81548173ffffffffffffffffffffffffffffffffffffffff021916908373ffffffffffffffffffffffffffffffffffffffff1602179055506111656008611e51565b611170303384611b0d565b600960009054906101000a900473ffffffffffffffffffffffffffffffffffffffff1673ffffffffffffffffffffffffffffffffffffffff166108fc600a549081150290604051600060405180830381858888f193505050501580156111da573d6000803e3d6000fd5b50600b600083815260200190815260200160002060010160009054906101000a900473ffffffffffffffffffffffffffffffffffffffff1673ffffffffffffffffffffffffffffffffffffffff166108fc349081150290604051600060405180830381858888f19350505050158015611257573d6000803e3d6000fd5b505050565b6060600061126a6007611e06565b90506000806000600190505b838111611309573373ffffffffffffffffffffffffffffffffffffffff16600b600083815260200190815260200160002060020160009054906101000a900473ffffffffffffffffffffffffffffffffffffffff1673ffffffffffffffffffffffffffffffffffffffff16036112f6576001836112f391906134c0565b92505b8080611301906134f4565b915050611276565b5060008267ffffffffffffffff81111561132657611325612ee4565b5b60405190808252806020026020018201604052801561135f57816020015b61134c6129af565b8152602001906001900390816113445790505b5090506000600190505b838111611519573373ffffffffffffffffffffffffffffffffffffffff16600b600083815260200190815260200160002060020160009054906101000a900473ffffffffffffffffffffffffffffffffffffffff1673ffffffffffffffffffffffffffffffffffffffff1603611506576000600b60008381526020019081526020016000209050806040518060a0016040529081600082015481526020016001820160009054906101000a900473ffffffffffffffffffffffffffffffffffffffff1673ffffffffffffffffffffffffffffffffffffffff1673ffffffffffffffffffffffffffffffffffffffff1681526020016002820160009054906101000a900473ffffffffffffffffffffffffffffffffffffffff1673ffffffffffffffffffffffffffffffffffffffff1673ffffffffffffffffffffffffffffffffffffffff168152602001600382015481526020016004820160009054906101000a900460ff1615151515815250508385815181106114ea576114e961353c565b5b602002602001018190525060018461150291906134c0565b9350505b8080611511906134f4565b915050611369565b508094505050505090565b606061152f8261196c565b600060066000848152602001908152602001600020805461154f906132aa565b80601f016020809104026020016040519081016040528092919081815260200182805461157b906132aa565b80156115c85780601f1061159d576101008083540402835291602001916115c8565b820191906000526020600020905b8154815290600101906020018083116115ab57829003601f168201915b5050505050905060006115d96124bc565b905060008151036115ee578192505050611631565b60008251111561162357808260405160200161160b9291906137fd565b60405160208183030381529060405292505050611631565b61162c846124d3565b925050505b919050565b60008111611679576040517f08c379a00000000000000000000000000000000000000000000000000000000081526004016116709061386d565b60405180910390fd5b3373ffffffffffffffffffffffffffffffffffffffff16600b600084815260200190815260200160002060020160009054906101000a900473ffffffffffffffffffffffffffffffffffffffff1673ffffffffffffffffffffffffffffffffffffffff161461171d576040517f08c379a0000000000000000000000000000000000000000000000000000000008152600401611714906138ff565b60405180910390fd5b600a543414611761576040517f08c379a000000000000000000000000000000000000000000000000000000000815260040161175890613991565b60405180910390fd5b6000600b600084815260200190815260200160002060040160006101000a81548160ff02191690831515021790555080600b60008481526020019081526020016000206003018190555033600b600084815260200190815260200160002060010160006101000a81548173ffffffffffffffffffffffffffffffffffffffff021916908373ffffffffffffffffffffffffffffffffffffffff16021790555030600b600084815260200190815260200160002060020160006101000a81548173ffffffffffffffffffffffffffffffffffffffff021916908373ffffffffffffffffffffffffffffffffffffffff16021790555061185f600861253b565b61186a333084611b0d565b5050565b6000600560008473ffffffffffffffffffffffffffffffffffffffff1673ffffffffffffffffffffffffffffffffffffffff16815260200190815260200160002060008373ffffffffffffffffffffffffffffffffffffffff1673ffffffffffffffffffffffffffffffffffffffff16815260200190815260200160002060009054906101000a900460ff16905092915050565b60007f01ffc9a7000000000000000000000000000000000000000000000000000000007bffffffffffffffffffffffffffffffffffffffffffffffffffffffff1916827bffffffffffffffffffffffffffffffffffffffffffffffffffffffff1916149050919050565b61197581612597565b6119b4576040517f08c379a00000000000000000000000000000000000000000000000000000000081526004016119ab906135b7565b60405180910390fd5b50565b600033905090565b816004600083815260200190815260200160002060006101000a81548173ffffffffffffffffffffffffffffffffffffffff021916908373ffffffffffffffffffffffffffffffffffffffff160217905550808273ffffffffffffffffffffffffffffffffffffffff16611a3283610b13565b73ffffffffffffffffffffffffffffffffffffffff167f8c5be1e5ebec7d5bd14f71427d1e84f3dd0314c0f7b2291e5b200ac8c7c3b92560405160405180910390a45050565b600080611a8483610b13565b90508073ffffffffffffffffffffffffffffffffffffffff168473ffffffffffffffffffffffffffffffffffffffff161480611ac65750611ac5818561186e565b5b80611b0457508373ffffffffffffffffffffffffffffffffffffffff16611aec84610664565b73ffffffffffffffffffffffffffffffffffffffff16145b91505092915050565b8273ffffffffffffffffffffffffffffffffffffffff16611b2d82610b13565b73ffffffffffffffffffffffffffffffffffffffff1614611b83576040517f08c379a0000000000000000000000000000000000000000000000000000000008152600401611b7a90613a23565b60405180910390fd5b600073ffffffffffffffffffffffffffffffffffffffff168273ffffffffffffffffffffffffffffffffffffffff1603611bf2576040517f08c379a0000000000000000000000000000000000000000000000000000000008152600401611be990613ab5565b60405180910390fd5b611bff83838360016125d8565b8273ffffffffffffffffffffffffffffffffffffffff16611c1f82610b13565b73ffffffffffffffffffffffffffffffffffffffff1614611c75576040517f08c379a0000000000000000000000000000000000000000000000000000000008152600401611c6c90613a23565b60405180910390fd5b6004600082815260200190815260200160002060006101000a81549073ffffffffffffffffffffffffffffffffffffffff02191690556001600360008573ffffffffffffffffffffffffffffffffffffffff1673ffffffffffffffffffffffffffffffffffffffff168152602001908152602001600020600082825403925050819055506001600360008473ffffffffffffffffffffffffffffffffffffffff1673ffffffffffffffffffffffffffffffffffffffff16815260200190815260200160002060008282540192505081905550816002600083815260200190815260200160002060006101000a81548173ffffffffffffffffffffffffffffffffffffffff021916908373ffffffffffffffffffffffffffffffffffffffff160217905550808273ffffffffffffffffffffffffffffffffffffffff168473ffffffffffffffffffffffffffffffffffffffff167fddf252ad1be2c89b69c2b068fc378daa952ba7f163c4a11628f55a4df523b3ef60405160405180910390a4611e0183838360016125de565b505050565b600081600001549050919050565b60006002600083815260200190815260200160002060009054906101000a900473ffffffffffffffffffffffffffffffffffffffff169050919050565b6001816000016000828254019250508190555050565b600073ffffffffffffffffffffffffffffffffffffffff168273ffffffffffffffffffffffffffffffffffffffff1603611ed6576040517f08c379a0000000000000000000000000000000000000000000000000000000008152600401611ecd90613b21565b60405180910390fd5b611edf81612597565b15611f1f576040517f08c379a0000000000000000000000000000000000000000000000000000000008152600401611f1690613b8d565b60405180910390fd5b611f2d6000838360016125d8565b611f3681612597565b15611f76576040517f08c379a0000000000000000000000000000000000000000000000000000000008152600401611f6d90613b8d565b60405180910390fd5b6001600360008473ffffffffffffffffffffffffffffffffffffffff1673ffffffffffffffffffffffffffffffffffffffff16815260200190815260200160002060008282540192505081905550816002600083815260200190815260200160002060006101000a81548173ffffffffffffffffffffffffffffffffffffffff021916908373ffffffffffffffffffffffffffffffffffffffff160217905550808273ffffffffffffffffffffffffffffffffffffffff16600073ffffffffffffffffffffffffffffffffffffffff167fddf252ad1be2c89b69c2b068fc378daa952ba7f163c4a11628f55a4df523b3ef60405160405180910390a46120806000838360016125de565b5050565b61208d82612597565b6120cc576040517f08c379a00000000000000000000000000000000000000000000000000000000081526004016120c390613c1f565b60405180910390fd5b806006600084815260200190815260200160002090816120ec9190613deb565b505050565b60008111612134576040517f08c379a000000000000000000000000000000000000000000000000000000000815260040161212b9061386d565b60405180910390fd5b600a543414612178576040517f08c379a000000000000000000000000000000000000000000000000000000000815260040161216f90613f2f565b60405180910390fd5b6040518060a001604052808381526020013373ffffffffffffffffffffffffffffffffffffffff1681526020013073ffffffffffffffffffffffffffffffffffffffff16815260200182815260200160001515815250600b60008481526020019081526020016000206000820151816000015560208201518160010160006101000a81548173ffffffffffffffffffffffffffffffffffffffff021916908373ffffffffffffffffffffffffffffffffffffffff16021790555060408201518160020160006101000a81548173ffffffffffffffffffffffffffffffffffffffff021916908373ffffffffffffffffffffffffffffffffffffffff1602179055506060820151816003015560808201518160040160006101000a81548160ff0219169083151502179055509050506122b1333084611b0d565b817fdebdb32cb5230ab727c9c361b16fdb2015df225c10e6a3e7f60ecd5dc5be451630338460006040516122e89493929190613f4f565b60405180910390a25050565b8173ffffffffffffffffffffffffffffffffffffffff168373ffffffffffffffffffffffffffffffffffffffff1603612362576040517f08c379a000000000000000000000000000000000000000000000000000000000815260040161235990613fe0565b60405180910390fd5b80600560008573ffffffffffffffffffffffffffffffffffffffff1673ffffffffffffffffffffffffffffffffffffffff16815260200190815260200160002060008473ffffffffffffffffffffffffffffffffffffffff1673ffffffffffffffffffffffffffffffffffffffff16815260200190815260200160002060006101000a81548160ff0219169083151502179055508173ffffffffffffffffffffffffffffffffffffffff168373ffffffffffffffffffffffffffffffffffffffff167f17307eab39ab6107e8899845ad3d59bd9653f200f220920489ca2b5937696c31836040516124539190612ac0565b60405180910390a3505050565b61246b848484611b0d565b612477848484846125e4565b6124b6576040517f08c379a00000000000000000000000000000000000000000000000000000000081526004016124ad90614072565b60405180910390fd5b50505050565b606060405180602001604052806000815250905090565b60606124de8261196c565b60006124e86124bc565b905060008151116125085760405180602001604052806000815250612533565b806125128461276b565b6040516020016125239291906137fd565b6040516020818303038152906040525b915050919050565b60008160000154905060008111612587576040517f08c379a000000000000000000000000000000000000000000000000000000000815260040161257e906140de565b60405180910390fd5b6001810382600001819055505050565b60008073ffffffffffffffffffffffffffffffffffffffff166125b983611e14565b73ffffffffffffffffffffffffffffffffffffffff1614159050919050565b50505050565b50505050565b60006126058473ffffffffffffffffffffffffffffffffffffffff16612839565b1561275e578373ffffffffffffffffffffffffffffffffffffffff1663150b7a0261262e6119b7565b8786866040518563ffffffff1660e01b81526004016126509493929190614153565b6020604051808303816000875af192505050801561268c57506040513d601f19601f8201168201806040525081019061268991906141b4565b60015b61270e573d80600081146126bc576040519150601f19603f3d011682016040523d82523d6000602084013e6126c1565b606091505b506000815103612706576040517f08c379a00000000000000000000000000000000000000000000000000000000081526004016126fd90614072565b60405180910390fd5b805181602001fd5b63150b7a0260e01b7bffffffffffffffffffffffffffffffffffffffffffffffffffffffff1916817bffffffffffffffffffffffffffffffffffffffffffffffffffffffff191614915050612763565b600190505b949350505050565b60606000600161277a8461285c565b01905060008167ffffffffffffffff81111561279957612798612ee4565b5b6040519080825280601f01601f1916602001820160405280156127cb5781602001600182028036833780820191505090505b509050600082602001820190505b60011561282e578080600190039150507f3031323334353637383961626364656600000000000000000000000000000000600a86061a8153600a8581612822576128216141e1565b5b049450600085036127d9575b819350505050919050565b6000808273ffffffffffffffffffffffffffffffffffffffff163b119050919050565b600080600090507a184f03e93ff9f4daa797ed6e38ed64bf6a1f01000000000000000083106128ba577a184f03e93ff9f4daa797ed6e38ed64bf6a1f01000000000000000083816128b0576128af6141e1565b5b0492506040810190505b6d04ee2d6d415b85acef810000000083106128f7576d04ee2d6d415b85acef810000000083816128ed576128ec6141e1565b5b0492506020810190505b662386f26fc10000831061292657662386f26fc10000838161291c5761291b6141e1565b5b0492506010810190505b6305f5e100831061294f576305f5e1008381612945576129446141e1565b5b0492506008810190505b612710831061297457612710838161296a576129696141e1565b5b0492506004810190505b60648310612997576064838161298d5761298c6141e1565b5b0492506002810190505b600a83106129a6576001810190505b80915050919050565b6040518060a0016040528060008152602001600073ffffffffffffffffffffffffffffffffffffffff168152602001600073ffffffffffffffffffffffffffffffffffffffff168152602001600081526020016000151581525090565b6000604051905090565b600080fd5b600080fd5b60007fffffffff0000000000000000000000000000000000000000000000000000000082169050919050565b612a5581612a20565b8114612a6057600080fd5b50565b600081359050612a7281612a4c565b92915050565b600060208284031215612a8e57612a8d612a16565b5b6000612a9c84828501612a63565b91505092915050565b60008115159050919050565b612aba81612aa5565b82525050565b6000602082019050612ad56000830184612ab1565b92915050565b600081519050919050565b600082825260208201905092915050565b60005b83811015612b15578082015181840152602081019050612afa565b60008484015250505050565b6000601f19601f8301169050919050565b6000612b3d82612adb565b612b478185612ae6565b9350612b57818560208601612af7565b612b6081612b21565b840191505092915050565b60006020820190508181036000830152612b858184612b32565b905092915050565b6000819050919050565b612ba081612b8d565b8114612bab57600080fd5b50565b600081359050612bbd81612b97565b92915050565b600060208284031215612bd957612bd8612a16565b5b6000612be784828501612bae565b91505092915050565b600073ffffffffffffffffffffffffffffffffffffffff82169050919050565b6000612c1b82612bf0565b9050919050565b612c2b81612c10565b82525050565b6000602082019050612c466000830184612c22565b92915050565b612c5581612c10565b8114612c6057600080fd5b50565b600081359050612c7281612c4c565b92915050565b60008060408385031215612c8f57612c8e612a16565b5b6000612c9d85828601612c63565b9250506020612cae85828601612bae565b9150509250929050565b612cc181612b8d565b82525050565b6000602082019050612cdc6000830184612cb8565b92915050565b600080600060608486031215612cfb57612cfa612a16565b5b6000612d0986828701612c63565b9350506020612d1a86828701612c63565b9250506040612d2b86828701612bae565b9150509250925092565b600081519050919050565b600082825260208201905092915050565b6000819050602082019050919050565b612d6a81612b8d565b82525050565b6000612d7b82612bf0565b9050919050565b612d8b81612d70565b82525050565b612d9a81612aa5565b82525050565b60a082016000820151612db66000850182612d61565b506020820151612dc96020850182612d82565b506040820151612ddc6040850182612d82565b506060820151612def6060850182612d61565b506080820151612e026080850182612d91565b50505050565b6000612e148383612da0565b60a08301905092915050565b6000602082019050919050565b6000612e3882612d35565b612e428185612d40565b9350612e4d83612d51565b8060005b83811015612e7e578151612e658882612e08565b9750612e7083612e20565b925050600181019050612e51565b5085935050505092915050565b60006020820190508181036000830152612ea58184612e2d565b905092915050565b600060208284031215612ec357612ec2612a16565b5b6000612ed184828501612c63565b91505092915050565b600080fd5b600080fd5b7f4e487b7100000000000000000000000000000000000000000000000000000000600052604160045260246000fd5b612f1c82612b21565b810181811067ffffffffffffffff82111715612f3b57612f3a612ee4565b5b80604052505050565b6000612f4e612a0c565b9050612f5a8282612f13565b919050565b600067ffffffffffffffff821115612f7a57612f79612ee4565b5b612f8382612b21565b9050602081019050919050565b82818337600083830152505050565b6000612fb2612fad84612f5f565b612f44565b905082815260208101848484011115612fce57612fcd612edf565b5b612fd9848285612f90565b509392505050565b600082601f830112612ff657612ff5612eda565b5b8135613006848260208601612f9f565b91505092915050565b6000806040838503121561302657613025612a16565b5b600083013567ffffffffffffffff81111561304457613043612a1b565b5b61305085828601612fe1565b925050602061306185828601612bae565b9150509250929050565b61307481612aa5565b811461307f57600080fd5b50565b6000813590506130918161306b565b92915050565b600080604083850312156130ae576130ad612a16565b5b60006130bc85828601612c63565b92505060206130cd85828601613082565b9150509250929050565b600067ffffffffffffffff8211156130f2576130f1612ee4565b5b6130fb82612b21565b9050602081019050919050565b600061311b613116846130d7565b612f44565b90508281526020810184848401111561313757613136612edf565b5b613142848285612f90565b509392505050565b600082601f83011261315f5761315e612eda565b5b813561316f848260208601613108565b91505092915050565b6000806000806080858703121561319257613191612a16565b5b60006131a087828801612c63565b94505060206131b187828801612c63565b93505060406131c287828801612bae565b925050606085013567ffffffffffffffff8111156131e3576131e2612a1b565b5b6131ef8782880161314a565b91505092959194509250565b6000806040838503121561321257613211612a16565b5b600061322085828601612bae565b925050602061323185828601612bae565b9150509250929050565b6000806040838503121561325257613251612a16565b5b600061326085828601612c63565b925050602061327185828601612c63565b9150509250929050565b7f4e487b7100000000000000000000000000000000000000000000000000000000600052602260045260246000fd5b600060028204905060018216806132c257607f821691505b6020821081036132d5576132d461327b565b5b50919050565b7f4552433732313a20617070726f76616c20746f2063757272656e74206f776e6560008201527f7200000000000000000000000000000000000000000000000000000000000000602082015250565b6000613337602183612ae6565b9150613342826132db565b604082019050919050565b600060208201905081810360008301526133668161332a565b9050919050565b7f4552433732313a20617070726f76652063616c6c6572206973206e6f7420746f60008201527f6b656e206f776e6572206f7220617070726f76656420666f7220616c6c000000602082015250565b60006133c9603d83612ae6565b91506133d48261336d565b604082019050919050565b600060208201905081810360008301526133f8816133bc565b9050919050565b7f4552433732313a2063616c6c6572206973206e6f7420746f6b656e206f776e6560008201527f72206f7220617070726f76656400000000000000000000000000000000000000602082015250565b600061345b602d83612ae6565b9150613466826133ff565b604082019050919050565b6000602082019050818103600083015261348a8161344e565b9050919050565b7f4e487b7100000000000000000000000000000000000000000000000000000000600052601160045260246000fd5b60006134cb82612b8d565b91506134d683612b8d565b92508282019050808211156134ee576134ed613491565b5b92915050565b60006134ff82612b8d565b91507fffffffffffffffffffffffffffffffffffffffffffffffffffffffffffffffff820361353157613530613491565b5b600182019050919050565b7f4e487b7100000000000000000000000000000000000000000000000000000000600052603260045260246000fd5b7f4552433732313a20696e76616c696420746f6b656e2049440000000000000000600082015250565b60006135a1601883612ae6565b91506135ac8261356b565b602082019050919050565b600060208201905081810360008301526135d081613594565b9050919050565b7f4552433732313a2061646472657373207a65726f206973206e6f74206120766160008201527f6c6964206f776e65720000000000000000000000000000000000000000000000602082015250565b6000613633602983612ae6565b915061363e826135d7565b604082019050919050565b6000602082019050818103600083015261366281613626565b9050919050565b600061367482612b8d565b915061367f83612b8d565b925082820390508181111561369757613696613491565b5b92915050565b7f6f6e6c79204f776e6572206f6620746865206d61726b6574706c61636520636160008201527f6e206368616e676520746865206c697374696e67207072696365000000000000602082015250565b60006136f9603a83612ae6565b91506137048261369d565b604082019050919050565b60006020820190508181036000830152613728816136ec565b9050919050565b7f706c65617365207375626d6974207468652061736b696e67207072696365206960008201527f6e206f7264657220746f20636f6d706c65746520746865207075726368617365602082015250565b600061378b604083612ae6565b91506137968261372f565b604082019050919050565b600060208201905081810360008301526137ba8161377e565b9050919050565b600081905092915050565b60006137d782612adb565b6137e181856137c1565b93506137f1818560208601612af7565b80840191505092915050565b600061380982856137cc565b915061381582846137cc565b91508190509392505050565b7f70726963652063616e6e6f74206265207a65726f000000000000000000000000600082015250565b6000613857601483612ae6565b915061386282613821565b602082019050919050565b600060208201905081810360008301526138868161384a565b9050919050565b7f596f75206861766520746f206265206f776e6572206f6620746869732069746560008201527f6d20746f20726573616c65206974000000000000000000000000000000000000602082015250565b60006138e9602e83612ae6565b91506138f48261388d565b604082019050919050565b60006020820190508181036000830152613918816138dc565b9050919050565b7f7072696365206861766520746f20626520657175616c20746f206c697374696e60008201527f6720707269636500000000000000000000000000000000000000000000000000602082015250565b600061397b602783612ae6565b91506139868261391f565b604082019050919050565b600060208201905081810360008301526139aa8161396e565b9050919050565b7f4552433732313a207472616e736665722066726f6d20696e636f72726563742060008201527f6f776e6572000000000000000000000000000000000000000000000000000000602082015250565b6000613a0d602583612ae6565b9150613a18826139b1565b604082019050919050565b60006020820190508181036000830152613a3c81613a00565b9050919050565b7f4552433732313a207472616e7366657220746f20746865207a65726f2061646460008201527f7265737300000000000000000000000000000000000000000000000000000000602082015250565b6000613a9f602483612ae6565b9150613aaa82613a43565b604082019050919050565b60006020820190508181036000830152613ace81613a92565b9050919050565b7f4552433732313a206d696e7420746f20746865207a65726f2061646472657373600082015250565b6000613b0b602083612ae6565b9150613b1682613ad5565b602082019050919050565b60006020820190508181036000830152613b3a81613afe565b9050919050565b7f4552433732313a20746f6b656e20616c7265616479206d696e74656400000000600082015250565b6000613b77601c83612ae6565b9150613b8282613b41565b602082019050919050565b60006020820190508181036000830152613ba681613b6a565b9050919050565b7f45524337323155524953746f726167653a2055524920736574206f66206e6f6e60008201527f6578697374656e7420746f6b656e000000000000000000000000000000000000602082015250565b6000613c09602e83612ae6565b9150613c1482613bad565b604082019050919050565b60006020820190508181036000830152613c3881613bfc565b9050919050565b60008190508160005260206000209050919050565b60006020601f8301049050919050565b600082821b905092915050565b600060088302613ca17fffffffffffffffffffffffffffffffffffffffffffffffffffffffffffffffff82613c64565b613cab8683613c64565b95508019841693508086168417925050509392505050565b6000819050919050565b6000613ce8613ce3613cde84612b8d565b613cc3565b612b8d565b9050919050565b6000819050919050565b613d0283613ccd565b613d16613d0e82613cef565b848454613c71565b825550505050565b600090565b613d2b613d1e565b613d36818484613cf9565b505050565b5b81811015613d5a57613d4f600082613d23565b600181019050613d3c565b5050565b601f821115613d9f57613d7081613c3f565b613d7984613c54565b81016020851015613d88578190505b613d9c613d9485613c54565b830182613d3b565b50505b505050565b600082821c905092915050565b6000613dc260001984600802613da4565b1980831691505092915050565b6000613ddb8383613db1565b9150826002028217905092915050565b613df482612adb565b67ffffffffffffffff811115613e0d57613e0c612ee4565b5b613e1782546132aa565b613e22828285613d5e565b600060209050601f831160018114613e555760008415613e43578287015190505b613e4d8582613dcf565b865550613eb5565b601f198416613e6386613c3f565b60005b82811015613e8b57848901518255600182019150602085019450602081019050613e66565b86831015613ea85784890151613ea4601f891682613db1565b8355505b6001600288020188555050505b505050505050565b7f5072696365206d75737420626520657175616c20746f206c697374696e67207060008201527f7269636500000000000000000000000000000000000000000000000000000000602082015250565b6000613f19602483612ae6565b9150613f2482613ebd565b604082019050919050565b60006020820190508181036000830152613f4881613f0c565b9050919050565b6000608082019050613f646000830187612c22565b613f716020830186612c22565b613f7e6040830185612cb8565b613f8b6060830184612ab1565b95945050505050565b7f4552433732313a20617070726f766520746f2063616c6c657200000000000000600082015250565b6000613fca601983612ae6565b9150613fd582613f94565b602082019050919050565b60006020820190508181036000830152613ff981613fbd565b9050919050565b7f4552433732313a207472616e7366657220746f206e6f6e20455243373231526560008201527f63656976657220696d706c656d656e7465720000000000000000000000000000602082015250565b600061405c603283612ae6565b915061406782614000565b604082019050919050565b6000602082019050818103600083015261408b8161404f565b9050919050565b7f436f756e7465723a2064656372656d656e74206f766572666c6f770000000000600082015250565b60006140c8601b83612ae6565b91506140d382614092565b602082019050919050565b600060208201905081810360008301526140f7816140bb565b9050919050565b600081519050919050565b600082825260208201905092915050565b6000614125826140fe565b61412f8185614109565b935061413f818560208601612af7565b61414881612b21565b840191505092915050565b60006080820190506141686000830187612c22565b6141756020830186612c22565b6141826040830185612cb8565b8181036060830152614194818461411a565b905095945050505050565b6000815190506141ae81612a4c565b92915050565b6000602082840312156141ca576141c9612a16565b5b60006141d88482850161419f565b91505092915050565b7f4e487b7100000000000000000000000000000000000000000000000000000000600052601260045260246000fdfea264697066735822122009505aaa41c95642c672a5919e70fdc9896b4415475e66c62db32e508e2d6d4064736f6c63430008120033",
  "linkReferences": {},
  "deployedLinkReferences": {}
}